{
  "_format": "hh-sol-artifact-1",
  "contractName": "CrowdFunding",
  "sourceName": "contracts/CrowdFunding.sol",
  "abi": [
    {
      "anonymous": false,
      "inputs": [
        {
          "indexed": false,
          "internalType": "uint256",
          "name": "target",
          "type": "uint256"
        },
        {
          "indexed": false,
          "internalType": "string",
          "name": "message",
          "type": "string"
        }
      ],
      "name": "Log",
      "type": "event"
    },
    {
      "inputs": [
        {
          "internalType": "uint256",
          "name": "",
          "type": "uint256"
        }
      ],
      "name": "campaigns",
      "outputs": [
        {
          "internalType": "address",
          "name": "owner",
          "type": "address"
        },
        {
          "internalType": "string",
          "name": "title",
          "type": "string"
        },
        {
          "internalType": "string",
          "name": "description",
          "type": "string"
        },
        {
          "internalType": "uint256",
          "name": "target",
          "type": "uint256"
        },
        {
          "internalType": "uint256",
          "name": "deadline",
          "type": "uint256"
        },
        {
          "internalType": "uint256",
          "name": "amountCollected",
          "type": "uint256"
        }
      ],
      "stateMutability": "view",
      "type": "function"
    },
    {
      "inputs": [
        {
          "internalType": "address",
          "name": "_owner",
          "type": "address"
        },
        {
          "internalType": "string",
          "name": "_title",
          "type": "string"
        },
        {
          "internalType": "string",
          "name": "_description",
          "type": "string"
        },
        {
          "internalType": "uint256",
          "name": "_target",
          "type": "uint256"
        },
        {
          "internalType": "uint256",
          "name": "_deadline",
          "type": "uint256"
        }
      ],
      "name": "createCampaign",
      "outputs": [
        {
          "internalType": "uint256",
          "name": "",
          "type": "uint256"
        }
      ],
      "stateMutability": "nonpayable",
      "type": "function"
    },
    {
      "inputs": [
        {
          "internalType": "uint256",
          "name": "_id",
          "type": "uint256"
        }
      ],
      "name": "donateToCampaign",
      "outputs": [],
      "stateMutability": "payable",
      "type": "function"
    },
    {
      "inputs": [],
      "name": "getCampaigns",
      "outputs": [
        {
          "components": [
            {
              "internalType": "address",
              "name": "owner",
              "type": "address"
            },
            {
              "internalType": "string",
              "name": "title",
              "type": "string"
            },
            {
              "internalType": "string",
              "name": "description",
              "type": "string"
            },
            {
              "internalType": "uint256",
              "name": "target",
              "type": "uint256"
            },
            {
              "internalType": "uint256",
              "name": "deadline",
              "type": "uint256"
            },
            {
              "internalType": "uint256",
              "name": "amountCollected",
              "type": "uint256"
            },
            {
              "internalType": "address[]",
              "name": "donators",
              "type": "address[]"
            },
            {
              "internalType": "uint256[]",
              "name": "donations",
              "type": "uint256[]"
            }
          ],
          "internalType": "struct CrowdFunding.Campaign[]",
          "name": "",
          "type": "tuple[]"
        }
      ],
      "stateMutability": "view",
      "type": "function"
    },
    {
      "inputs": [
        {
          "internalType": "uint256",
          "name": "_id",
          "type": "uint256"
        }
      ],
      "name": "getDonators",
      "outputs": [
        {
          "internalType": "address[]",
          "name": "",
          "type": "address[]"
        },
        {
          "internalType": "uint256[]",
          "name": "",
          "type": "uint256[]"
        }
      ],
      "stateMutability": "view",
      "type": "function"
    },
    {
      "inputs": [],
      "name": "numberOfCampaigns",
      "outputs": [
        {
          "internalType": "uint256",
          "name": "",
          "type": "uint256"
        }
      ],
      "stateMutability": "view",
      "type": "function"
    }
  ],
  "bytecode": "0x60806040526000600155348015601457600080fd5b5061183b806100246000396000f3fe6080604052600436106100555760003560e01c8063075843c31461005a57806307ca140d146100975780630fa91fa9146100c2578063141961bc1461010057806342a4fda814610142578063a6b036331461015e575b600080fd5b34801561006657600080fd5b50610081600480360381019061007c9190610c3c565b610189565b60405161008e9190610cfe565b60405180910390f35b3480156100a357600080fd5b506100ac6102d0565b6040516100b99190610cfe565b60405180910390f35b3480156100ce57600080fd5b506100e960048036038101906100e49190610d19565b6102d6565b6040516100f7929190610ec2565b60405180910390f35b34801561010c57600080fd5b5061012760048036038101906101229190610d19565b6103e6565b60405161013996959493929190610f87565b60405180910390f35b61015c60048036038101906101579190610d19565b610552565b005b34801561016a57600080fd5b506101736106b5565b60405161018091906112a5565b60405180910390f35b600080600080600154815260200190815260200160002090504283116101e4576040517f08c379a00000000000000000000000000000000000000000000000000000000081526004016101db90611339565b60405180910390fd5b7f48197b8eaf01bc9d46384d798a981a4537fc58dcd35ece37054dddbba8418edf8460405161021391906113a5565b60405180910390a1868160000160006101000a81548173ffffffffffffffffffffffffffffffffffffffff021916908373ffffffffffffffffffffffffffffffffffffffff1602179055508581600101908161026f91906115df565b508481600201908161028191906115df565b5083816003018190555082816004018190555060008160050181905550600160008154809291906102b1906116e0565b9190505550600180546102c49190611728565b91505095945050505050565b60015481565b6060806000808481526020019081526020016000206006016000808581526020019081526020016000206007018180548060200260200160405190810160405280929190818152602001828054801561038457602002820191906000526020600020905b8160009054906101000a900473ffffffffffffffffffffffffffffffffffffffff1673ffffffffffffffffffffffffffffffffffffffff168152602001906001019080831161033a575b50505050509150808054806020026020016040519081016040528092919081815260200182805480156103d657602002820191906000526020600020905b8154815260200190600101908083116103c2575b5050505050905091509150915091565b60006020528060005260406000206000915090508060000160009054906101000a900473ffffffffffffffffffffffffffffffffffffffff169080600101805461042f90611402565b80601f016020809104026020016040519081016040528092919081815260200182805461045b90611402565b80156104a85780601f1061047d576101008083540402835291602001916104a8565b820191906000526020600020905b81548152906001019060200180831161048b57829003601f168201915b5050505050908060020180546104bd90611402565b80601f01602080910402602001604051908101604052809291908181526020018280546104e990611402565b80156105365780601f1061050b57610100808354040283529160200191610536565b820191906000526020600020905b81548152906001019060200180831161051957829003601f168201915b5050505050908060030154908060040154908060050154905086565b60003490506000806000848152602001908152602001600020905080600601339080600181540180825580915050600190039060005260206000200160009091909190916101000a81548173ffffffffffffffffffffffffffffffffffffffff021916908373ffffffffffffffffffffffffffffffffffffffff1602179055508060070182908060018154018082558091505060019003906000526020600020016000909190919091505560008160000160009054906101000a900473ffffffffffffffffffffffffffffffffffffffff1673ffffffffffffffffffffffffffffffffffffffff16836040516106479061178d565b60006040518083038185875af1925050503d8060008114610684576040519150601f19603f3d011682016040523d82523d6000602084013e610689565b606091505b5050905080156106af57828260050160008282546106a791906117a2565b925050819055505b50505050565b6060600060015467ffffffffffffffff8111156106d5576106d4610adb565b5b60405190808252806020026020018201604052801561070e57816020015b6106fb6109f3565b8152602001906001900390816106f35790505b50905060005b6001548110156109eb576000806000838152602001908152602001600020905080604051806101000160405290816000820160009054906101000a900473ffffffffffffffffffffffffffffffffffffffff1673ffffffffffffffffffffffffffffffffffffffff1673ffffffffffffffffffffffffffffffffffffffff1681526020016001820180546107a790611402565b80601f01602080910402602001604051908101604052809291908181526020018280546107d390611402565b80156108205780601f106107f557610100808354040283529160200191610820565b820191906000526020600020905b81548152906001019060200180831161080357829003601f168201915b5050505050815260200160028201805461083990611402565b80601f016020809104026020016040519081016040528092919081815260200182805461086590611402565b80156108b25780601f10610887576101008083540402835291602001916108b2565b820191906000526020600020905b81548152906001019060200180831161089557829003601f168201915b505050505081526020016003820154815260200160048201548152602001600582015481526020016006820180548060200260200160405190810160405280929190818152602001828054801561095e57602002820191906000526020600020905b8160009054906101000a900473ffffffffffffffffffffffffffffffffffffffff1673ffffffffffffffffffffffffffffffffffffffff1681526020019060010190808311610914575b50505050508152602001600782018054806020026020016040519081016040528092919081815260200182805480156109b657602002820191906000526020600020905b8154815260200190600101908083116109a2575b5050505050815250508383815181106109d2576109d16117d6565b5b6020026020010181905250508080600101915050610714565b508091505090565b604051806101000160405280600073ffffffffffffffffffffffffffffffffffffffff168152602001606081526020016060815260200160008152602001600081526020016000815260200160608152602001606081525090565b6000604051905090565b600080fd5b600080fd5b600073ffffffffffffffffffffffffffffffffffffffff82169050919050565b6000610a8d82610a62565b9050919050565b610a9d81610a82565b8114610aa857600080fd5b50565b600081359050610aba81610a94565b92915050565b600080fd5b600080fd5b6000601f19601f8301169050919050565b7f4e487b7100000000000000000000000000000000000000000000000000000000600052604160045260246000fd5b610b1382610aca565b810181811067ffffffffffffffff82111715610b3257610b31610adb565b5b80604052505050565b6000610b45610a4e565b9050610b518282610b0a565b919050565b600067ffffffffffffffff821115610b7157610b70610adb565b5b610b7a82610aca565b9050602081019050919050565b82818337600083830152505050565b6000610ba9610ba484610b56565b610b3b565b905082815260208101848484011115610bc557610bc4610ac5565b5b610bd0848285610b87565b509392505050565b600082601f830112610bed57610bec610ac0565b5b8135610bfd848260208601610b96565b91505092915050565b6000819050919050565b610c1981610c06565b8114610c2457600080fd5b50565b600081359050610c3681610c10565b92915050565b600080600080600060a08688031215610c5857610c57610a58565b5b6000610c6688828901610aab565b955050602086013567ffffffffffffffff811115610c8757610c86610a5d565b5b610c9388828901610bd8565b945050604086013567ffffffffffffffff811115610cb457610cb3610a5d565b5b610cc088828901610bd8565b9350506060610cd188828901610c27565b9250506080610ce288828901610c27565b9150509295509295909350565b610cf881610c06565b82525050565b6000602082019050610d136000830184610cef565b92915050565b600060208284031215610d2f57610d2e610a58565b5b6000610d3d84828501610c27565b91505092915050565b600081519050919050565b600082825260208201905092915050565b6000819050602082019050919050565b610d7b81610a82565b82525050565b6000610d8d8383610d72565b60208301905092915050565b6000602082019050919050565b6000610db182610d46565b610dbb8185610d51565b9350610dc683610d62565b8060005b83811015610df7578151610dde8882610d81565b9750610de983610d99565b925050600181019050610dca565b5085935050505092915050565b600081519050919050565b600082825260208201905092915050565b6000819050602082019050919050565b610e3981610c06565b82525050565b6000610e4b8383610e30565b60208301905092915050565b6000602082019050919050565b6000610e6f82610e04565b610e798185610e0f565b9350610e8483610e20565b8060005b83811015610eb5578151610e9c8882610e3f565b9750610ea783610e57565b925050600181019050610e88565b5085935050505092915050565b60006040820190508181036000830152610edc8185610da6565b90508181036020830152610ef08184610e64565b90509392505050565b610f0281610a82565b82525050565b600081519050919050565b600082825260208201905092915050565b60005b83811015610f42578082015181840152602081019050610f27565b60008484015250505050565b6000610f5982610f08565b610f638185610f13565b9350610f73818560208601610f24565b610f7c81610aca565b840191505092915050565b600060c082019050610f9c6000830189610ef9565b8181036020830152610fae8188610f4e565b90508181036040830152610fc28187610f4e565b9050610fd16060830186610cef565b610fde6080830185610cef565b610feb60a0830184610cef565b979650505050505050565b600081519050919050565b600082825260208201905092915050565b6000819050602082019050919050565b600082825260208201905092915050565b600061103e82610f08565b6110488185611022565b9350611058818560208601610f24565b61106181610aca565b840191505092915050565b600082825260208201905092915050565b600061108882610d46565b611092818561106c565b935061109d83610d62565b8060005b838110156110ce5781516110b58882610d81565b97506110c083610d99565b9250506001810190506110a1565b5085935050505092915050565b600082825260208201905092915050565b60006110f782610e04565b61110181856110db565b935061110c83610e20565b8060005b8381101561113d5781516111248882610e3f565b975061112f83610e57565b925050600181019050611110565b5085935050505092915050565b6000610100830160008301516111636000860182610d72565b506020830151848203602086015261117b8282611033565b915050604083015184820360408601526111958282611033565b91505060608301516111aa6060860182610e30565b5060808301516111bd6080860182610e30565b5060a08301516111d060a0860182610e30565b5060c083015184820360c08601526111e8828261107d565b91505060e083015184820360e086015261120282826110ec565b9150508091505092915050565b600061121b838361114a565b905092915050565b6000602082019050919050565b600061123b82610ff6565b6112458185611001565b93508360208202850161125785611012565b8060005b858110156112935784840389528151611274858261120f565b945061127f83611223565b925060208a0199505060018101905061125b565b50829750879550505050505092915050565b600060208201905081810360008301526112bf8184611230565b905092915050565b7f54686520646561646c696e652073686f756c642062652061206461746520696e60008201527f2074686520667574757265000000000000000000000000000000000000000000602082015250565b6000611323602b83610f13565b915061132e826112c7565b604082019050919050565b6000602082019050818103600083015261135281611316565b9050919050565b7f7461726765740000000000000000000000000000000000000000000000000000600082015250565b600061138f600683610f13565b915061139a82611359565b602082019050919050565b60006040820190506113ba6000830184610cef565b81810360208301526113cb81611382565b905092915050565b7f4e487b7100000000000000000000000000000000000000000000000000000000600052602260045260246000fd5b6000600282049050600182168061141a57607f821691505b60208210810361142d5761142c6113d3565b5b50919050565b60008190508160005260206000209050919050565b60006020601f8301049050919050565b600082821b905092915050565b6000600883026114957fffffffffffffffffffffffffffffffffffffffffffffffffffffffffffffffff82611458565b61149f8683611458565b95508019841693508086168417925050509392505050565b6000819050919050565b60006114dc6114d76114d284610c06565b6114b7565b610c06565b9050919050565b6000819050919050565b6114f6836114c1565b61150a611502826114e3565b848454611465565b825550505050565b600090565b61151f611512565b61152a8184846114ed565b505050565b5b8181101561154e57611543600082611517565b600181019050611530565b5050565b601f8211156115935761156481611433565b61156d84611448565b8101602085101561157c578190505b61159061158885611448565b83018261152f565b50505b505050565b600082821c905092915050565b60006115b660001984600802611598565b1980831691505092915050565b60006115cf83836115a5565b9150826002028217905092915050565b6115e882610f08565b67ffffffffffffffff81111561160157611600610adb565b5b61160b8254611402565b611616828285611552565b600060209050601f8311600181146116495760008415611637578287015190505b61164185826115c3565b8655506116a9565b601f19841661165786611433565b60005b8281101561167f5784890151825560018201915060208501945060208101905061165a565b8683101561169c5784890151611698601f8916826115a5565b8355505b6001600288020188555050505b505050505050565b7f4e487b7100000000000000000000000000000000000000000000000000000000600052601160045260246000fd5b60006116eb82610c06565b91507fffffffffffffffffffffffffffffffffffffffffffffffffffffffffffffffff820361171d5761171c6116b1565b5b600182019050919050565b600061173382610c06565b915061173e83610c06565b9250828203905081811115611756576117556116b1565b5b92915050565b600081905092915050565b50565b600061177760008361175c565b915061178282611767565b600082019050919050565b60006117988261176a565b9150819050919050565b60006117ad82610c06565b91506117b883610c06565b92508282019050808211156117d0576117cf6116b1565b5b92915050565b7f4e487b7100000000000000000000000000000000000000000000000000000000600052603260045260246000fdfea2646970667358221220ade8327c002ef2104de718dc7e905cf065ed577045966deda28b5544b4eeda6064736f6c634300081b0033",
  "linkReferences": {},
  "deployedLinkReferences": {}
}